{
  "contractName": "BusTicket",
  "abi": [
    {
      "inputs": [],
      "name": "getConMsg",
      "outputs": [
        {
          "internalType": "string",
          "name": "",
          "type": "string"
        }
      ],
      "stateMutability": "view",
      "type": "function",
      "constant": true
    },
    {
      "inputs": [
        {
          "internalType": "string",
          "name": "_conMsg",
          "type": "string"
        }
      ],
      "name": "setConMsg",
      "outputs": [],
      "stateMutability": "nonpayable",
      "type": "function"
    },
    {
      "inputs": [
        {
          "components": [
            {
              "internalType": "string",
              "name": "name",
              "type": "string"
            },
            {
              "internalType": "string",
              "name": "note",
              "type": "string"
            }
          ],
          "internalType": "struct BusTicket.City",
          "name": "_city",
          "type": "tuple"
        }
      ],
      "name": "createCity",
      "outputs": [],
      "stateMutability": "nonpayable",
      "type": "function"
    },
    {
      "inputs": [],
      "name": "getAllCity",
      "outputs": [
        {
          "components": [
            {
              "internalType": "string",
              "name": "name",
              "type": "string"
            },
            {
              "internalType": "string",
              "name": "note",
              "type": "string"
            }
          ],
          "internalType": "struct BusTicket.City[]",
          "name": "",
          "type": "tuple[]"
        }
      ],
      "stateMutability": "view",
      "type": "function",
      "constant": true
    },
    {
      "inputs": [
        {
          "internalType": "uint256",
          "name": "_index",
          "type": "uint256"
        }
      ],
      "name": "getByIdCity",
      "outputs": [
        {
          "components": [
            {
              "internalType": "string",
              "name": "name",
              "type": "string"
            },
            {
              "internalType": "string",
              "name": "note",
              "type": "string"
            }
          ],
          "internalType": "struct BusTicket.City",
          "name": "",
          "type": "tuple"
        }
      ],
      "stateMutability": "view",
      "type": "function",
      "constant": true
    },
    {
      "inputs": [
        {
          "internalType": "uint256",
          "name": "_index",
          "type": "uint256"
        },
        {
          "components": [
            {
              "internalType": "string",
              "name": "name",
              "type": "string"
            },
            {
              "internalType": "string",
              "name": "note",
              "type": "string"
            }
          ],
          "internalType": "struct BusTicket.City",
          "name": "_city",
          "type": "tuple"
        }
      ],
      "name": "updateCity",
      "outputs": [],
      "stateMutability": "nonpayable",
      "type": "function"
    },
    {
      "inputs": [
        {
          "components": [
            {
              "internalType": "string",
              "name": "number",
              "type": "string"
            },
            {
              "internalType": "string",
              "name": "brand",
              "type": "string"
            },
            {
              "internalType": "uint256",
              "name": "km",
              "type": "uint256"
            },
            {
              "internalType": "uint256",
              "name": "capacity",
              "type": "uint256"
            },
            {
              "internalType": "bool",
              "name": "isActive",
              "type": "bool"
            }
          ],
          "internalType": "struct BusTicket.Vehicle",
          "name": "_vehicle",
          "type": "tuple"
        }
      ],
      "name": "createVehicle",
      "outputs": [],
      "stateMutability": "nonpayable",
      "type": "function"
    },
    {
      "inputs": [],
      "name": "getAllVehicle",
      "outputs": [
        {
          "components": [
            {
              "internalType": "string",
              "name": "number",
              "type": "string"
            },
            {
              "internalType": "string",
              "name": "brand",
              "type": "string"
            },
            {
              "internalType": "uint256",
              "name": "km",
              "type": "uint256"
            },
            {
              "internalType": "uint256",
              "name": "capacity",
              "type": "uint256"
            },
            {
              "internalType": "bool",
              "name": "isActive",
              "type": "bool"
            }
          ],
          "internalType": "struct BusTicket.Vehicle[]",
          "name": "",
          "type": "tuple[]"
        }
      ],
      "stateMutability": "view",
      "type": "function",
      "constant": true
    },
    {
      "inputs": [],
      "name": "getAllActiveVehicle",
      "outputs": [
        {
          "components": [
            {
              "internalType": "string",
              "name": "number",
              "type": "string"
            },
            {
              "internalType": "string",
              "name": "brand",
              "type": "string"
            },
            {
              "internalType": "uint256",
              "name": "km",
              "type": "uint256"
            },
            {
              "internalType": "uint256",
              "name": "capacity",
              "type": "uint256"
            },
            {
              "internalType": "bool",
              "name": "isActive",
              "type": "bool"
            }
          ],
          "internalType": "struct BusTicket.Vehicle[]",
          "name": "",
          "type": "tuple[]"
        }
      ],
      "stateMutability": "view",
      "type": "function",
      "constant": true
    },
    {
      "inputs": [
        {
          "internalType": "uint256",
          "name": "_index",
          "type": "uint256"
        }
      ],
      "name": "getByIdVehicle",
      "outputs": [
        {
          "components": [
            {
              "internalType": "string",
              "name": "number",
              "type": "string"
            },
            {
              "internalType": "string",
              "name": "brand",
              "type": "string"
            },
            {
              "internalType": "uint256",
              "name": "km",
              "type": "uint256"
            },
            {
              "internalType": "uint256",
              "name": "capacity",
              "type": "uint256"
            },
            {
              "internalType": "bool",
              "name": "isActive",
              "type": "bool"
            }
          ],
          "internalType": "struct BusTicket.Vehicle",
          "name": "",
          "type": "tuple"
        }
      ],
      "stateMutability": "view",
      "type": "function",
      "constant": true
    },
    {
      "inputs": [
        {
          "internalType": "uint256",
          "name": "_index",
          "type": "uint256"
        },
        {
          "components": [
            {
              "internalType": "string",
              "name": "number",
              "type": "string"
            },
            {
              "internalType": "string",
              "name": "brand",
              "type": "string"
            },
            {
              "internalType": "uint256",
              "name": "km",
              "type": "uint256"
            },
            {
              "internalType": "uint256",
              "name": "capacity",
              "type": "uint256"
            },
            {
              "internalType": "bool",
              "name": "isActive",
              "type": "bool"
            }
          ],
          "internalType": "struct BusTicket.Vehicle",
          "name": "_vehicle",
          "type": "tuple"
        }
      ],
      "name": "updateVehicle",
      "outputs": [],
      "stateMutability": "nonpayable",
      "type": "function"
    },
    {
      "inputs": [
        {
          "components": [
            {
              "internalType": "uint256",
              "name": "fromCityId",
              "type": "uint256"
            },
            {
              "internalType": "uint256",
              "name": "toCityId",
              "type": "uint256"
            },
            {
              "internalType": "uint256",
              "name": "vehicleId",
              "type": "uint256"
            },
            {
              "internalType": "uint256",
              "name": "price",
              "type": "uint256"
            }
          ],
          "internalType": "struct BusTicket.Transfer",
          "name": "_transfer",
          "type": "tuple"
        }
      ],
      "name": "createTransfer",
      "outputs": [],
      "stateMutability": "nonpayable",
      "type": "function"
    },
    {
      "inputs": [],
      "name": "getAllTransferContent",
      "outputs": [
        {
          "components": [
            {
              "components": [
                {
                  "internalType": "string",
                  "name": "name",
                  "type": "string"
                },
                {
                  "internalType": "string",
                  "name": "note",
                  "type": "string"
                }
              ],
              "internalType": "struct BusTicket.City",
              "name": "fromCity",
              "type": "tuple"
            },
            {
              "components": [
                {
                  "internalType": "string",
                  "name": "name",
                  "type": "string"
                },
                {
                  "internalType": "string",
                  "name": "note",
                  "type": "string"
                }
              ],
              "internalType": "struct BusTicket.City",
              "name": "toCity",
              "type": "tuple"
            },
            {
              "components": [
                {
                  "internalType": "string",
                  "name": "number",
                  "type": "string"
                },
                {
                  "internalType": "string",
                  "name": "brand",
                  "type": "string"
                },
                {
                  "internalType": "uint256",
                  "name": "km",
                  "type": "uint256"
                },
                {
                  "internalType": "uint256",
                  "name": "capacity",
                  "type": "uint256"
                },
                {
                  "internalType": "bool",
                  "name": "isActive",
                  "type": "bool"
                }
              ],
              "internalType": "struct BusTicket.Vehicle",
              "name": "vehicle",
              "type": "tuple"
            },
            {
              "internalType": "uint256",
              "name": "price",
              "type": "uint256"
            }
          ],
          "internalType": "struct BusTicket.TransferContent[]",
          "name": "",
          "type": "tuple[]"
        }
      ],
      "stateMutability": "view",
      "type": "function",
      "constant": true
    },
    {
      "inputs": [
        {
          "internalType": "uint256",
          "name": "_index",
          "type": "uint256"
        }
      ],
      "name": "getAllByIdTransferContent",
      "outputs": [
        {
          "components": [
            {
              "components": [
                {
                  "internalType": "string",
                  "name": "name",
                  "type": "string"
                },
                {
                  "internalType": "string",
                  "name": "note",
                  "type": "string"
                }
              ],
              "internalType": "struct BusTicket.City",
              "name": "fromCity",
              "type": "tuple"
            },
            {
              "components": [
                {
                  "internalType": "string",
                  "name": "name",
                  "type": "string"
                },
                {
                  "internalType": "string",
                  "name": "note",
                  "type": "string"
                }
              ],
              "internalType": "struct BusTicket.City",
              "name": "toCity",
              "type": "tuple"
            },
            {
              "components": [
                {
                  "internalType": "string",
                  "name": "number",
                  "type": "string"
                },
                {
                  "internalType": "string",
                  "name": "brand",
                  "type": "string"
                },
                {
                  "internalType": "uint256",
                  "name": "km",
                  "type": "uint256"
                },
                {
                  "internalType": "uint256",
                  "name": "capacity",
                  "type": "uint256"
                },
                {
                  "internalType": "bool",
                  "name": "isActive",
                  "type": "bool"
                }
              ],
              "internalType": "struct BusTicket.Vehicle",
              "name": "vehicle",
              "type": "tuple"
            },
            {
              "internalType": "uint256",
              "name": "price",
              "type": "uint256"
            }
          ],
          "internalType": "struct BusTicket.TransferContent",
          "name": "",
          "type": "tuple"
        }
      ],
      "stateMutability": "view",
      "type": "function",
      "constant": true
    }
  ],
  "bytecode": "0x60806040526040518060400160405280601881526020017f436f6e6e656374696f6e20537563636573732042616265210000000000000000815250600090805190602001906200005192919062000075565b506000600255600060045560006006553480156200006e57600080fd5b506200011b565b828054600181600116156101000203166002900490600052602060002090601f016020900481019282601f10620000b857805160ff1916838001178555620000e9565b82800160010185558215620000e9579182015b82811115620000e8578251825591602001919060010190620000cb565b5b509050620000f89190620000fc565b5090565b5b8082111562000117576000816000905550600101620000fd565b5090565b611e02806200012b6000396000f3fe608060405234801561001057600080fd5b50600436106100ea5760003560e01c806386870c721161008c5780639f6d5759116100665780639f6d575914610239578063d030131d14610255578063d1bbcd6814610271578063f90c91d51461028d576100ea565b806386870c72146101e157806393986189146101ff578063961abd601461021d576100ea565b8063437cd9f8116100c8578063437cd9f81461015b5780635752dbc2146101775780636e03906a1461019357806379359c99146101c3576100ea565b806307aeeadf146100ef578063184c3b7b1461010d578063202433bf1461013d575b600080fd5b6100f76102bd565b6040516101049190611b7c565b60405180910390f35b610127600480360381019061012291906115b6565b61035f565b6040516101349190611be2565b60405180910390f35b6101456104ff565b6040516101529190611b5a565b60405180910390f35b61017560048036038101906101709190611575565b61074c565b005b610191600480360381019061018c919061150b565b6107e7565b005b6101ad60048036038101906101a891906115b6565b61084e565b6040516101ba9190611b9e565b60405180910390f35b6101cb6109bf565b6040516101d89190611b16565b60405180910390f35b6101e9610bb3565b6040516101f69190611b38565b60405180910390f35b610207610d11565b6040516102149190611b5a565b60405180910390f35b610237600480360381019061023291906115df565b610f34565b005b610253600480360381019061024e919061154c565b610f89565b005b61026f600480360381019061026a9190611633565b610fde565b005b61028b600480360381019061028691906114ca565b611067565b005b6102a760048036038101906102a291906115b6565b611081565b6040516102b49190611bc0565b60405180910390f35b606060008054600181600116156101000203166002900480601f0160208091040260200160405190810160405280929190818152602001828054600181600116156101000203166002900480156103555780601f1061032a57610100808354040283529160200191610355565b820191906000526020600020905b81548152906001019060200180831161033857829003601f168201915b5050505050905090565b61036761115a565b600360008381526020019081526020016000206040518060a0016040529081600082018054600181600116156101000203166002900480601f01602080910402602001604051908101604052809291908181526020018280546001816001161561010002031660029004801561041e5780601f106103f35761010080835404028352916020019161041e565b820191906000526020600020905b81548152906001019060200180831161040157829003601f168201915b50505050508152602001600182018054600181600116156101000203166002900480601f0160208091040260200160405190810160405280929190818152602001828054600181600116156101000203166002900480156104c05780601f10610495576101008083540402835291602001916104c0565b820191906000526020600020905b8154815290600101906020018083116104a357829003601f168201915b5050505050815260200160028201548152602001600382015481526020016004820160009054906101000a900460ff1615151515815250509050919050565b60608060045467ffffffffffffffff8111801561051b57600080fd5b5060405190808252806020026020018201604052801561055557816020015b61054261115a565b81526020019060019003908161053a5790505b50905060005b600454811015610744576003600082815260200190815260200160002060040160009054906101000a900460ff161561073757600360008281526020019081526020016000206040518060a0016040529081600082018054600181600116156101000203166002900480601f0160208091040260200160405190810160405280929190818152602001828054600181600116156101000203166002900480156106455780601f1061061a57610100808354040283529160200191610645565b820191906000526020600020905b81548152906001019060200180831161062857829003601f168201915b50505050508152602001600182018054600181600116156101000203166002900480601f0160208091040260200160405190810160405280929190818152602001828054600181600116156101000203166002900480156106e75780601f106106bc576101008083540402835291602001916106e7565b820191906000526020600020905b8154815290600101906020018083116106ca57829003601f168201915b5050505050815260200160028201548152602001600382015481526020016004820160009054906101000a900460ff16151515158152505082828151811061072b57fe5b60200260200101819052505b808060010191505061055b565b508091505090565b80600360006004548152602001908152602001600020600082015181600001908051906020019061077e92919061118b565b50602082015181600101908051906020019061079b92919061118b565b50604082015181600201556060820151816003015560808201518160040160006101000a81548160ff021916908315150217905550905050600160046000828254019250508190555050565b80600160006002548152602001908152602001600020600082015181600001908051906020019061081992919061118b565b50602082015181600101908051906020019061083692919061118b565b50905050600160026000828254019250508190555050565b61085661120b565b60016000838152602001908152602001600020604051806040016040529081600082018054600181600116156101000203166002900480601f01602080910402602001604051908101604052809291908181526020018280546001816001161561010002031660029004801561090d5780601f106108e25761010080835404028352916020019161090d565b820191906000526020600020905b8154815290600101906020018083116108f057829003601f168201915b50505050508152602001600182018054600181600116156101000203166002900480601f0160208091040260200160405190810160405280929190818152602001828054600181600116156101000203166002900480156109af5780601f10610984576101008083540402835291602001916109af565b820191906000526020600020905b81548152906001019060200180831161099257829003601f168201915b5050505050815250509050919050565b60608060025467ffffffffffffffff811180156109db57600080fd5b50604051908082528060200260200182016040528015610a1557816020015b610a0261120b565b8152602001906001900390816109fa5790505b50905060005b600254811015610bab5760016000828152602001908152602001600020604051806040016040529081600082018054600181600116156101000203166002900480601f016020809104026020016040519081016040528092919081815260200182805460018160011615610100020316600290048015610adc5780601f10610ab157610100808354040283529160200191610adc565b820191906000526020600020905b815481529060010190602001808311610abf57829003601f168201915b50505050508152602001600182018054600181600116156101000203166002900480601f016020809104026020016040519081016040528092919081815260200182805460018160011615610100020316600290048015610b7e5780601f10610b5357610100808354040283529160200191610b7e565b820191906000526020600020905b815481529060010190602001808311610b6157829003601f168201915b505050505081525050828281518110610b9357fe5b60200260200101819052508080600101915050610a1b565b508091505090565b60608060065467ffffffffffffffff81118015610bcf57600080fd5b50604051908082528060200260200182016040528015610c0957816020015b610bf6611225565b815260200190600190039081610bee5790505b50905060005b600654811015610d0957610c2161125f565b6005600060065481526020019081526020016000206040518060800160405290816000820154815260200160018201548152602001600282015481526020016003820154815250509050610c7361120b565b610c80826000015161084e565b9050610c8a61120b565b610c97836020015161084e565b9050610ca161115a565b610cae846040015161035f565b9050610cb8611225565b60405180608001604052808581526020018481526020018381526020018660600151815250905080878781518110610cec57fe5b602002602001018190525050505050508080600101915050610c0f565b508091505090565b60608060045467ffffffffffffffff81118015610d2d57600080fd5b50604051908082528060200260200182016040528015610d6757816020015b610d5461115a565b815260200190600190039081610d4c5790505b50905060005b600454811015610f2c57600360008281526020019081526020016000206040518060a0016040529081600082018054600181600116156101000203166002900480601f016020809104026020016040519081016040528092919081815260200182805460018160011615610100020316600290048015610e2e5780601f10610e0357610100808354040283529160200191610e2e565b820191906000526020600020905b815481529060010190602001808311610e1157829003601f168201915b50505050508152602001600182018054600181600116156101000203166002900480601f016020809104026020016040519081016040528092919081815260200182805460018160011615610100020316600290048015610ed05780601f10610ea557610100808354040283529160200191610ed0565b820191906000526020600020905b815481529060010190602001808311610eb357829003601f168201915b5050505050815260200160028201548152602001600382015481526020016004820160009054906101000a900460ff161515151581525050828281518110610f1457fe5b60200260200101819052508080600101915050610d6d565b508091505090565b80600160008481526020019081526020016000206000820151816000019080519060200190610f6492919061118b565b506020820151816001019080519060200190610f8192919061118b565b509050505050565b8060056000600654815260200190815260200160002060008201518160000155602082015181600101556040820151816002015560608201518160030155905050600160066000828254019250508190555050565b8060036000848152602001908152602001600020600082015181600001908051906020019061100e92919061118b565b50602082015181600101908051906020019061102b92919061118b565b50604082015181600201556060820151816003015560808201518160040160006101000a81548160ff0219169083151502179055509050505050565b806000908051906020019061107d92919061118b565b5050565b611089611225565b61109161125f565b6005600084815260200190815260200160002060405180608001604052908160008201548152602001600182015481526020016002820154815260200160038201548152505090506110e161120b565b6110ee826000015161084e565b90506110f861120b565b611105836020015161084e565b905061110f61115a565b61111c846040015161035f565b9050611126611225565b6040518060800160405280858152602001848152602001838152602001866060015181525090508095505050505050919050565b6040518060a00160405280606081526020016060815260200160008152602001600081526020016000151581525090565b828054600181600116156101000203166002900490600052602060002090601f016020900481019282601f106111cc57805160ff19168380011785556111fa565b828001600101855582156111fa579182015b828111156111f95782518255916020019190600101906111de565b5b5090506112079190611287565b5090565b604051806040016040528060608152602001606081525090565b604051806080016040528061123861120b565b815260200161124561120b565b815260200161125261115a565b8152602001600081525090565b6040518060800160405280600081526020016000815260200160008152602001600081525090565b5b808211156112a0576000816000905550600101611288565b5090565b6000813590506112b381611d9e565b92915050565b600082601f8301126112ca57600080fd5b81356112dd6112d882611c31565b611c04565b915080825260208301602083018583830111156112f957600080fd5b611304838284611d4b565b50505092915050565b60006040828403121561131f57600080fd5b6113296040611c04565b9050600082013567ffffffffffffffff81111561134557600080fd5b611351848285016112b9565b600083015250602082013567ffffffffffffffff81111561137157600080fd5b61137d848285016112b9565b60208301525092915050565b60006080828403121561139b57600080fd5b6113a56080611c04565b905060006113b5848285016114b5565b60008301525060206113c9848285016114b5565b60208301525060406113dd848285016114b5565b60408301525060606113f1848285016114b5565b60608301525092915050565b600060a0828403121561140f57600080fd5b61141960a0611c04565b9050600082013567ffffffffffffffff81111561143557600080fd5b611441848285016112b9565b600083015250602082013567ffffffffffffffff81111561146157600080fd5b61146d848285016112b9565b6020830152506040611481848285016114b5565b6040830152506060611495848285016114b5565b60608301525060806114a9848285016112a4565b60808301525092915050565b6000813590506114c481611db5565b92915050565b6000602082840312156114dc57600080fd5b600082013567ffffffffffffffff8111156114f657600080fd5b611502848285016112b9565b91505092915050565b60006020828403121561151d57600080fd5b600082013567ffffffffffffffff81111561153757600080fd5b6115438482850161130d565b91505092915050565b60006080828403121561155e57600080fd5b600061156c84828501611389565b91505092915050565b60006020828403121561158757600080fd5b600082013567ffffffffffffffff8111156115a157600080fd5b6115ad848285016113fd565b91505092915050565b6000602082840312156115c857600080fd5b60006115d6848285016114b5565b91505092915050565b600080604083850312156115f257600080fd5b6000611600858286016114b5565b925050602083013567ffffffffffffffff81111561161d57600080fd5b6116298582860161130d565b9150509250929050565b6000806040838503121561164657600080fd5b6000611654858286016114b5565b925050602083013567ffffffffffffffff81111561167157600080fd5b61167d858286016113fd565b9150509250929050565b600061169383836118a3565b905092915050565b60006116a7838361192b565b905092915050565b60006116bb8383611a0d565b905092915050565b60006116ce82611c8d565b6116d88185611ce0565b9350836020820285016116ea85611c5d565b8060005b8581101561172657848403895281516117078582611687565b945061171283611cb9565b925060208a019950506001810190506116ee565b50829750879550505050505092915050565b600061174382611c98565b61174d8185611cf1565b93508360208202850161175f85611c6d565b8060005b8581101561179b578484038952815161177c858261169b565b945061178783611cc6565b925060208a01995050600181019050611763565b50829750879550505050505092915050565b60006117b882611ca3565b6117c28185611d02565b9350836020820285016117d485611c7d565b8060005b8581101561181057848403895281516117f185826116af565b94506117fc83611cd3565b925060208a019950506001810190506117d8565b50829750879550505050505092915050565b61182b81611d35565b82525050565b600061183c82611cae565b6118468185611d13565b9350611856818560208601611d5a565b61185f81611d8d565b840191505092915050565b600061187582611cae565b61187f8185611d24565b935061188f818560208601611d5a565b61189881611d8d565b840191505092915050565b600060408301600083015184820360008601526118c08282611831565b915050602083015184820360208601526118da8282611831565b9150508091505092915050565b600060408301600083015184820360008601526119048282611831565b9150506020830151848203602086015261191e8282611831565b9150508091505092915050565b6000608083016000830151848203600086015261194882826118a3565b9150506020830151848203602086015261196282826118a3565b9150506040830151848203604086015261197c8282611a0d565b91505060608301516119916060860182611b07565b508091505092915050565b600060808301600083015184820360008601526119b982826118a3565b915050602083015184820360208601526119d382826118a3565b915050604083015184820360408601526119ed8282611a0d565b9150506060830151611a026060860182611b07565b508091505092915050565b600060a0830160008301518482036000860152611a2a8282611831565b91505060208301518482036020860152611a448282611831565b9150506040830151611a596040860182611b07565b506060830151611a6c6060860182611b07565b506080830151611a7f6080860182611822565b508091505092915050565b600060a0830160008301518482036000860152611aa78282611831565b91505060208301518482036020860152611ac18282611831565b9150506040830151611ad66040860182611b07565b506060830151611ae96060860182611b07565b506080830151611afc6080860182611822565b508091505092915050565b611b1081611d41565b82525050565b60006020820190508181036000830152611b3081846116c3565b905092915050565b60006020820190508181036000830152611b528184611738565b905092915050565b60006020820190508181036000830152611b7481846117ad565b905092915050565b60006020820190508181036000830152611b96818461186a565b905092915050565b60006020820190508181036000830152611bb881846118e7565b905092915050565b60006020820190508181036000830152611bda818461199c565b905092915050565b60006020820190508181036000830152611bfc8184611a8a565b905092915050565b6000604051905081810181811067ffffffffffffffff82111715611c2757600080fd5b8060405250919050565b600067ffffffffffffffff821115611c4857600080fd5b601f19601f8301169050602081019050919050565b6000819050602082019050919050565b6000819050602082019050919050565b6000819050602082019050919050565b600081519050919050565b600081519050919050565b600081519050919050565b600081519050919050565b6000602082019050919050565b6000602082019050919050565b6000602082019050919050565b600082825260208201905092915050565b600082825260208201905092915050565b600082825260208201905092915050565b600082825260208201905092915050565b600082825260208201905092915050565b60008115159050919050565b6000819050919050565b82818337600083830152505050565b60005b83811015611d78578082015181840152602081019050611d5d565b83811115611d87576000848401525b50505050565b6000601f19601f8301169050919050565b611da781611d35565b8114611db257600080fd5b50565b611dbe81611d41565b8114611dc957600080fd5b5056fea2646970667358221220eabb271fc88be6ad5d80eb5398f6dbf99d2a567bf657ec7b9b3ea179dd9ce6bc64736f6c634300060c0033",
  "immutableReferences": {},
  "source": "// SPDX-License-Identifier: MIT\npragma solidity >=0.4.22 <0.9.0;\npragma experimental ABIEncoderV2;\n\ncontract BusTicket {\n    //CONNECTION TEST AREA\n\n    string conMsg = \"Connection Success Babe!\";\n\n    function getConMsg() public view returns (string memory) {\n        return conMsg;\n    }\n\n    function setConMsg(string memory _conMsg) public {\n        conMsg = _conMsg;\n    }\n\n    //CITY\n\n    // variables\n    struct City {\n        string name;\n        string note;\n    }\n\n    mapping(uint256 => City) cityMap;\n    uint256 cityMapIndex = 0;\n\n    //functions\n\n    function createCity(City memory _city) public {\n        cityMap[cityMapIndex] = _city;\n        cityMapIndex += 1;\n    }\n\n    function getAllCity() public view returns (City[] memory) {\n        City[] memory result = new City[](cityMapIndex);\n\n        for (uint256 index = 0; index < cityMapIndex; index++) {\n            result[index] = cityMap[index];\n        }\n        return result;\n    }\n\n    function getByIdCity(uint256 _index) public view returns (City memory) {\n        return cityMap[_index];\n    }\n\n    function updateCity(uint256 _index, City memory _city) public {\n        cityMap[_index] = _city;\n    }\n\n    //VEHICLE\n\n    //variables\n\n    struct Vehicle {\n        string number;\n        string brand;\n        uint256 km;\n        uint256 capacity;\n        bool isActive;\n    }\n\n    mapping(uint256 => Vehicle) vehicleMap;\n    uint256 vehicleMapIndex = 0;\n\n    //functions\n\n    function createVehicle(Vehicle memory _vehicle) public {\n        vehicleMap[vehicleMapIndex] = _vehicle;\n        vehicleMapIndex += 1;\n    }\n\n    function getAllVehicle() public view returns (Vehicle[] memory) {\n        Vehicle[] memory result = new Vehicle[](vehicleMapIndex);\n\n        for (uint256 index = 0; index < vehicleMapIndex; index++) {\n            result[index] = vehicleMap[index];\n        }\n        return result;\n    }\n\n    function getAllActiveVehicle() public view returns (Vehicle[] memory) {\n        Vehicle[] memory result = new Vehicle[](vehicleMapIndex);\n\n        for (uint256 index = 0; index < vehicleMapIndex; index++) {\n            if (vehicleMap[index].isActive) {\n                result[index] = vehicleMap[index];\n            }\n        }\n        return result;\n    }\n\n    function getByIdVehicle(uint256 _index)\n        public\n        view\n        returns (Vehicle memory)\n    {\n        return vehicleMap[_index];\n    }\n\n    function updateVehicle(uint256 _index, Vehicle memory _vehicle) public {\n        vehicleMap[_index] = _vehicle;\n    }\n\n    // TRANSFER\n\n    //variables\n\n    // future-1\n    // enum TransferStatus {\n    //     Start,\n    //     Stop,\n    //     Waiting\n    // }\n\n    struct TransferContent {\n        City fromCity;\n        City toCity;\n        Vehicle vehicle;\n        uint256 price;\n    }\n\n    struct Transfer {\n        uint256 fromCityId;\n        uint256 toCityId;\n        uint256 vehicleId;\n        uint256 price;\n        //TransferStatus transferStatus;\n        //enum -> status\n    }\n\n    mapping(uint256 => Transfer) transferMap;\n    uint256 transferMapIndex = 0;\n\n    //functions\n\n    function createTransfer(Transfer memory _transfer) public {\n        transferMap[transferMapIndex] = _transfer;\n        transferMapIndex += 1;\n    }\n\n    function getAllTransferContent()\n        public\n        view\n        returns (TransferContent[] memory)\n    {\n        TransferContent[] memory result = new TransferContent[](\n            transferMapIndex\n        );\n\n        for (uint256 index = 0; index < transferMapIndex; index++) {\n            Transfer memory transferDetail = transferMap[transferMapIndex];\n            City memory fromCity = getByIdCity(transferDetail.fromCityId);\n            City memory toCity = getByIdCity(transferDetail.toCityId);\n            Vehicle memory vehicle = getByIdVehicle(transferDetail.vehicleId);\n\n            TransferContent memory resultTransferContent = TransferContent(\n                fromCity,\n                toCity,\n                vehicle,\n                transferDetail.price\n            );\n\n            result[index] = resultTransferContent;\n        }\n\n        return result;\n    }\n\n    function getAllByIdTransferContent(uint256 _index)\n        public\n        view\n        returns (TransferContent memory)\n    {\n        Transfer memory transferDetail = transferMap[_index];\n        City memory fromCity = getByIdCity(transferDetail.fromCityId);\n        City memory toCity = getByIdCity(transferDetail.toCityId);\n        Vehicle memory vehicle = getByIdVehicle(transferDetail.vehicleId);\n\n        TransferContent memory result = TransferContent(\n            fromCity,\n            toCity,\n            vehicle,\n            transferDetail.price\n        );\n\n        return result;\n    }\n}\n",
  "sourcePath": "C:\\Users\\nandh\\OneDrive\\Documents\\Documents\\ehterium-bus-ticket-app-master\\contracts\\BusTicket.sol",
  "compiler": {
    "name": "solc",
    "version": "0.6.12+commit.27d51765.Emscripten.clang"
  },
  "schemaVersion": "3.4.16",
  "updatedAt": "2025-12-29T04:24:16.140Z",
  "networkType": "ethereum",
  "devdoc": {
    "kind": "dev",
    "methods": {},
    "version": 1
  },
  "userdoc": {
    "kind": "user",
    "methods": {},
    "version": 1
  }
}